:1000000005308A00482D0000FF00030E8301A10087
:100010000A08A0008A010408A2007708A300780853
:10002000A4007908A5007A08A60003170D08031399
:10003000A70003170F080313A80003170C080313E6
:10004000A90003170E080313AA00831383120B1EC3
:100050002B288B184C28220884002308F70024083A
:10006000F8002508F9002608FA00270803178D0074
:100070000313280803178F000313290803178C00A4
:1000800003132A0803178E00031320088A00210E89
:100090008300FF0E7F0E09008A110A12772A0A10C8
:1000A0008A100A11820728340C3401340634F337DD
:1000B000A039701D2518B23A00007338A036613C93
:1000C000BA1230197500E4302032E13CA0397000DA
:1000D000201020102010201020004E3084008313A8
:1000E0000008031980280630F800F701F70B76287E
:1000F000F80B75287B30F700F70B7C28800B7328F2
:100100000800D6018316081600308312081A013041
:10011000D6048316881600308312881A0130F7003F
:100120000310F70D7708D6048316081700308312E2
:10013000081B0130F700F70DF70DFC30F7057708C5
:10014000D6048316881700308312881B0130F7000D
:10015000F70DF70DF70DF830F7057708D6045608B8
:10016000F8000800831608168816081788178312E7
:10017000081583160811000083128815831688114C
:100180000000831281207808D50088118316881119
:1001900000008312881583168811000083128120C5
:1001A0007808D40088118316881108128812081361
:1001B00088138312550EF700F030F70577085404C2
:1001C000F80008005518E6280812E72808168316D4
:1001D00008128312D518EE288812EF288816831685
:1001E000881283125519F6280813F7280817831662
:1001F00008138312D519FE288813FF288817831641
:100200008813000083128815831688110330F700C5
:10021000F70B0829831288118316881183120800AE
:100220008810831688108312B2207808D400D41B5B
:100230001429D208031D1E2988101F29881483162B
:100240008810000083120811831608110000831221
:100250008811831688118312530ED4000F30D405F1
:100260005408D500E22053080F39D400D500E2200D
:1002700008004F0B3D29D00151294F08023C031DB6
:1002800044294030D00051294F08033C031D4B291D
:100290001430D00051294F08043C031D512954301B
:1002A000D00001304E02D00750088038D100D20172
:1002B0005108D300102108004D080C3A0319672992
:1002C000063A03196F29023A031975297A29D201CE
:1002D0000130D30010210230CE006D207F29013083
:1002E000CE000230CF0039217F29D2011030D30057
:1002F00010217F290130D2004D08D30010210800C1
:100300000B08CA008B13831603178C170C140000FC
:10031000000083120313CA1B8B170318B729031796
:100320000C087F390313CA0003170D080313CB0011
:1003300003170F080313CC004A08CD005C214B08BB
:1003400003178D0003134C0803178F0003130B08CA
:10035000CD008B13831603178C170C1400000000BC
:1003600083120313CD1B8B17C90BB729D62903178B
:100370000C0D0E0D7F390313CA0003170D0803136C
:10038000CB0003170F080313CC004A08CD005C21F3
:100390004B0803178D0003134C0803178F008D0AB9
:1003A00003198F0A03100313C90B802908004C0896
:1003B000F8014B020318DF294B08F700EB29F7017E
:1003C0000830CD00CB0DF70D4C0877020318F7006D
:1003D000F80DCD0BE229080078084908CB006430FD
:1003E000CC00D7217708C90078083030031DFF29D9
:1003F000CA1C062ACA19062A4A1A2030022ACA1119
:100400004A124A14F8077808CD005C214908CB004D
:100410000A30CC00D7217708C90078083030031D96
:10042000172ACA191B2A4A1C1B2A4A1A2030F80705
:100430007808CD005C213030C9074908CD005C2127
:1004400008000B08C9008B13831603178C170C14B4
:100450000000000083120313C91B8B1703170C083D
:100460007F390319752A0313C90003170D080313F5
:10047000CA0003170F080313CB004908CD005C2105
:100480004A0803178D0003134B0803178F0003134B
:100490000B08CC008B13831603178C170C14000069
:1004A000000083120313CC1B8B1703170C0D0E0DCA
:1004B0007F390319752A0313C90003170D080313A5
:1004C000CA0003170F080313CB004908CD005C21B5
:1004D0004A0803178D0003134B0803178F008D0A7A
:1004E00003198F0A0313212A031703130800831625
:1004F000061483120618A92A1430CE006D20831624
:10050000061483120618A92A0130CE000230CF004B
:100510003921B501AD3003178D0002308F00031073
:1005200006300313C90080213508C9000130CA0014
:10053000EC21891083168910B330831203178D00C4
:1005400002308F0003132122831606148312061C27
:10055000A42A8B108A110A122B28F337A039701D98
:100560002518B23A00012010201020102010201071
:100570000000831608128812081388138811881047
:1005800008118312881083168810831208118316AD
:100590000811831288118316881102308312BB0060
:1005A000AB018B1BAB178B13BE30CE006D20AB1B8A
:1005B0008B17BB0BD02A0130BA003A08033C031C4E
:1005C000F52AAB018B1BAB178B130330D500E22050
:1005D000AB1B8B17AB018B1BAB178B130530CE00FE
:1005E0006D20AB1B8B17BA0ADD2AAB018B1BAB1737
:1005F0008B130230D500E220AB1B8B17BA013A08EF
:10060000033C031C122B3A084F20BB00AB018B1B91
:10061000AB178B13D2013B08D3001021AB1B8B17F8
:10062000BA0AFF2A8A110A126A2D0030F800063829
:100630009200FF3083169200831237113708831619
:100640008700831207110C3097002F08F9002E083D
:10065000F800F90CF80CF90CF80CF90C7808950076
:10066000F90C790C3039F7001708CF397704970067
:10067000B71037088316870083128714B71037081E
:1006800083168700831287108A110A12812D831620
:10069000861583128619612BAB018B1BAB178B134D
:1006A0001430CE006D20AB1B8B178316861583127A
:1006B0008619612B0130B206831686158312861DBA
:1006C0005C2B8A110A12822DAB018B1BAB178B138B
:1006D0000130CE00CF003921AB1B8B175D300317E3
:1006E0008D0000308F0003100313AB018B1BAB1781
:1006F0008B130730C9008021AB1B8B17AB018B1B01
:10070000AB178B133608C9000130CA00EC21AB1BB4
:100710008B170800AB018B1BAB178B130130CE007E
:100720000230CF003921AB1B8B17573003178D00D8
:1007300000308F0003100313AB018B1BAB178B131F
:100740000630C9008021AB1B8B17AB018B1BAB178D
:100750008B133508C9000130CA00EC21AB1B8B1785
:100760000800AB018B1BAB178B130B30CE00013095
:10077000CF003921AB1B8B17AB018B1BAB178B1336
:100780006430CD005C21AB1B8B17AB018B1BAB170F
:100790008B136330CD005C21AB1B8B17AB018B1B24
:1007A000AB178B133A30CD005C21AB1B8B17AB0121
:1007B0008B1BAB178B133308C9000830CA00EC2120
:1007C000AB1B8B17080037173708831687000030DC
:1007D0008312071B0130340203190F2C3717370817
:1007E000831687008312071FFB2BB50A8316091097
:1007F00083120914062C37173708831687008312D3
:10080000071B062C831609108312091037173708A7
:10081000831687008312B401071BB40A8A23831648
:1008200006178312061B282CAB018B1BAB178B13EF
:100830001430CE006D20AB1B8B1783160617831266
:10084000061B282CB60A831606178312061F232CB4
:10085000831686178312861B482CAB018B1BAB17A4
:100860008B131430CE006D20AB1B8B1783168617AD
:100870008312861B482C0130B602B61B422C360868
:10088000003C0318B601831686178312861F432C7B
:1008900064238A110A12882D36083502031D962C0E
:1008A000AB018B1BAB178B130130CE000230CF0096
:1008B0003921AB1B8B17633003178D0000308F007D
:1008C0000313AB018B1BAB178B132122AB1B8B17B5
:1008D0008914831689108312AB018B1BAB178B1302
:1008E0001430CE006D20AB1B8B17AB018B1BAB17ED
:1008F0008B130130CE000230CF003921AB1B8B1798
:10090000683003178D0000308F000313AB018B1B81
:10091000AB178B132122AB1B8B17AB018B1BAB17B8
:100920008B131430CE006D20AB1B8B178A110A126B
:10093000892D831606168312061ABA2CAB018B1B5F
:10094000AB178B131430CE006D20AB1B8B178316A7
:1009500006168312061AB52CB30AB31BB52C33083E
:10096000043C0318B52C0430B3008316061683121A
:10097000061EB52C831686168312861AD92CAB0157
:100980008B1BAB178B131430CE006D20AB1B8B175A
:10099000831686168312861AD92CB303B31BD32C65
:1009A0003308003C0318B301831686168312861E93
:1009B000D42C3308BA007D30BB00F701F8013A08A7
:1009C00003103B18F707F70CF80CBB18F707F70CE8
:1009D000F80C3B19F707F70CF80CBB19F707F70CE5
:1009E000F80C3B1AF707F70CF80CBB1AF707F70CD3
:1009F000F80C3B1BF707F70CF80CBB1BF707F70CC1
:100A0000F80C7808F700F801F901FA01F71F0B2D2F
:100A1000F803F903FA037A08B1007908B0007808FE
:100A2000AF007708AE0037113708831687008312AE
:100A300007110C3097002F08F9002E08F800F90C68
:100A4000F80CF90CF80CF90C78089500F90C790CF5
:100A50003039F7001708CF3977049700B1238A118E
:100A60000A128E2DAB018B1BAB178B13D2010130F9
:100A7000D3001021AB1B8B17AB018B1BAB178B1358
:100A80000230CE006D20AB1B8B178A110A12922DFB
:100A900003081F398300B101B001AF01AE01B301FA
:100AA000B401B501B601FF30B700B901B801831632
:100AB0001F149F141F159F1107309C00831383126E
:100AC000AC01AD01C0308B040B160B16831601135D
:100AD0008312B92AAB018B1BAB178B130C30CD00E3
:100AE0005C21AB1B8B1783160910831209100911A7
:100AF000831609118312891083168910831232100C
:100B0000152B472B321C8F2D64238A23B123E32B13
:100B10004C2C0911831609118312992C9A2D321825
:100B20009A2D322DB5010530B600B3010915831693
:080B300009118312812D6300FD
:02400E003A3F37
:00000001FF
;PIC16F877A
;CRC=AA9F  CREATED="29-Oct-23 19:17"
